:020000040000FA
:100000008701A001A101A201A301A401A501A701EB
:10001000A60103138316F0308600003087008800A5
:100020000301031383123F30880006148610061163
:100030008611061A6A28861A7028061B7628861BDF
:1000400080280610861406118611061A5828861A6A
:100050005E28061B6428861B852806108610061558
:100060008611061A4628861A4C28061B5228861B1B
:100070008D280610861006118615061ABA28861ACB
:100080007C28061B9A28861B92281528061A4628C3
:100090000630880001301528861A4C285B3088000D
:1000A00002301528061B52284F30880003301528CF
:1000B000061A58286630880004301528861A5E28EB
:1000C0006D30880005301528061B64287D308800B7
:1000D00006301528061A6A28473088000730152888
:1000E000861A70287F30880008301528061B76286D
:1000F0006F30880009301528861A3F30880015288F
:10010000861B8028723087001528861B85280130C1
:10011000A70076308700A1071528861B8D28403060
:1001200087001528861B9228A1070030A7004630BB
:1001300087001528061B9A288701DC20A200A6004C
:10014000271CB828A42815280301A8010130A800FD
:1001500003012208DC20A60703010130A1020301EC
:10016000210828072802031DA42803012608C928FE
:100170002107C92887018801A101A201A401A501C5
:10018000A601A301A701030115282408DC2088008B
:100190001528A4000A302402A600031CC528031950
:1001A000D728063087002608DC208800152806306E
:1001B00087003F308800152882073F3406345B34BF
:1001C0004F3466346D347D3407347F346F343F34BC
:0201D000080025
:02400E00313D42
:00000001FF
