:020000040000FA
:100000008316F0308600F0308800003087008312BD
:100010000A2008280614061A8D20861A3820061B86
:100020004720861B562006108614061A3320861A8F
:100030003D20061B4C20861B5B2086100615061AE9
:100040008120861A4220061B5120861B6020061143
:100050008615061A6520861A6C20061B7320861BDF
:100060007A20861108000030B50030309320080057
:100070000130B5003130932008000230B500323035
:10008000932008000330B50033309320080004307B
:10009000B5003430932008000530B500353093208A
:1000A00008000630B5003630932008000730B50050
:1000B0003730932008000830B5003830932008000E
:1000C0000930B5003930932008003508B6000030FB
:1000D000B7002B30932008003508B6000130B70078
:1000E0002D30932008003508B6000230B7002A30C2
:1000F000932008003508B6000330B7002F30932056
:1001000008003D309320B71C8528371C8728360807
:100110003507303E93200800080001309D20B501CE
:10012000B601B70108000814881008159D20383062
:100130009D200E309D200814080087000811A4207F
:100140000815A420081008000D30B800FB30B900D5
:0E015000B90BA828B80BA82808000800080062
:02400E00313D42
:00000001FF
